{
  "_format": "hh-sol-artifact-1",
  "contractName": "IODomains",
  "sourceName": "contracts/IODomains.sol",
  "abi": [
    {
      "inputs": [
        {
          "internalType": "string",
          "name": "_name",
          "type": "string"
        },
        {
          "internalType": "string",
          "name": "_symbol",
          "type": "string"
        }
      ],
      "stateMutability": "nonpayable",
      "type": "constructor"
    },
    {
      "anonymous": false,
      "inputs": [
        {
          "indexed": true,
          "internalType": "address",
          "name": "owner",
          "type": "address"
        },
        {
          "indexed": true,
          "internalType": "address",
          "name": "approved",
          "type": "address"
        },
        {
          "indexed": true,
          "internalType": "uint256",
          "name": "tokenId",
          "type": "uint256"
        }
      ],
      "name": "Approval",
      "type": "event"
    },
    {
      "anonymous": false,
      "inputs": [
        {
          "indexed": true,
          "internalType": "address",
          "name": "owner",
          "type": "address"
        },
        {
          "indexed": true,
          "internalType": "address",
          "name": "operator",
          "type": "address"
        },
        {
          "indexed": false,
          "internalType": "bool",
          "name": "approved",
          "type": "bool"
        }
      ],
      "name": "ApprovalForAll",
      "type": "event"
    },
    {
      "anonymous": false,
      "inputs": [
        {
          "indexed": true,
          "internalType": "address",
          "name": "from",
          "type": "address"
        },
        {
          "indexed": true,
          "internalType": "address",
          "name": "to",
          "type": "address"
        },
        {
          "indexed": true,
          "internalType": "uint256",
          "name": "tokenId",
          "type": "uint256"
        }
      ],
      "name": "Transfer",
      "type": "event"
    },
    {
      "stateMutability": "payable",
      "type": "fallback"
    },
    {
      "inputs": [
        {
          "internalType": "address",
          "name": "to",
          "type": "address"
        },
        {
          "internalType": "uint256",
          "name": "tokenId",
          "type": "uint256"
        }
      ],
      "name": "approve",
      "outputs": [],
      "stateMutability": "nonpayable",
      "type": "function"
    },
    {
      "inputs": [
        {
          "internalType": "address",
          "name": "owner",
          "type": "address"
        }
      ],
      "name": "balanceOf",
      "outputs": [
        {
          "internalType": "uint256",
          "name": "",
          "type": "uint256"
        }
      ],
      "stateMutability": "view",
      "type": "function"
    },
    {
      "inputs": [
        {
          "internalType": "uint256",
          "name": "",
          "type": "uint256"
        }
      ],
      "name": "domains",
      "outputs": [
        {
          "internalType": "string",
          "name": "name",
          "type": "string"
        },
        {
          "internalType": "uint256",
          "name": "cost",
          "type": "uint256"
        },
        {
          "internalType": "bool",
          "name": "isOwned",
          "type": "bool"
        }
      ],
      "stateMutability": "view",
      "type": "function"
    },
    {
      "inputs": [
        {
          "internalType": "uint256",
          "name": "tokenId",
          "type": "uint256"
        }
      ],
      "name": "getApproved",
      "outputs": [
        {
          "internalType": "address",
          "name": "",
          "type": "address"
        }
      ],
      "stateMutability": "view",
      "type": "function"
    },
    {
      "inputs": [],
      "name": "getBalance",
      "outputs": [
        {
          "internalType": "uint256",
          "name": "",
          "type": "uint256"
        }
      ],
      "stateMutability": "view",
      "type": "function"
    },
    {
      "inputs": [
        {
          "internalType": "uint256",
          "name": "_id",
          "type": "uint256"
        }
      ],
      "name": "getDomain",
      "outputs": [
        {
          "components": [
            {
              "internalType": "string",
              "name": "name",
              "type": "string"
            },
            {
              "internalType": "uint256",
              "name": "cost",
              "type": "uint256"
            },
            {
              "internalType": "bool",
              "name": "isOwned",
              "type": "bool"
            }
          ],
          "internalType": "struct IODomains.Domain",
          "name": "",
          "type": "tuple"
        }
      ],
      "stateMutability": "view",
      "type": "function"
    },
    {
      "inputs": [
        {
          "internalType": "address",
          "name": "owner",
          "type": "address"
        },
        {
          "internalType": "address",
          "name": "operator",
          "type": "address"
        }
      ],
      "name": "isApprovedForAll",
      "outputs": [
        {
          "internalType": "bool",
          "name": "",
          "type": "bool"
        }
      ],
      "stateMutability": "view",
      "type": "function"
    },
    {
      "inputs": [
        {
          "internalType": "string",
          "name": "_name",
          "type": "string"
        },
        {
          "internalType": "uint256",
          "name": "_cost",
          "type": "uint256"
        }
      ],
      "name": "list",
      "outputs": [],
      "stateMutability": "nonpayable",
      "type": "function"
    },
    {
      "inputs": [],
      "name": "maxSupply",
      "outputs": [
        {
          "internalType": "uint256",
          "name": "",
          "type": "uint256"
        }
      ],
      "stateMutability": "view",
      "type": "function"
    },
    {
      "inputs": [
        {
          "internalType": "uint256",
          "name": "_id",
          "type": "uint256"
        }
      ],
      "name": "mint",
      "outputs": [],
      "stateMutability": "payable",
      "type": "function"
    },
    {
      "inputs": [],
      "name": "name",
      "outputs": [
        {
          "internalType": "string",
          "name": "",
          "type": "string"
        }
      ],
      "stateMutability": "view",
      "type": "function"
    },
    {
      "inputs": [],
      "name": "owner",
      "outputs": [
        {
          "internalType": "address",
          "name": "",
          "type": "address"
        }
      ],
      "stateMutability": "view",
      "type": "function"
    },
    {
      "inputs": [
        {
          "internalType": "uint256",
          "name": "tokenId",
          "type": "uint256"
        }
      ],
      "name": "ownerOf",
      "outputs": [
        {
          "internalType": "address",
          "name": "",
          "type": "address"
        }
      ],
      "stateMutability": "view",
      "type": "function"
    },
    {
      "inputs": [
        {
          "internalType": "address",
          "name": "from",
          "type": "address"
        },
        {
          "internalType": "address",
          "name": "to",
          "type": "address"
        },
        {
          "internalType": "uint256",
          "name": "tokenId",
          "type": "uint256"
        }
      ],
      "name": "safeTransferFrom",
      "outputs": [],
      "stateMutability": "nonpayable",
      "type": "function"
    },
    {
      "inputs": [
        {
          "internalType": "address",
          "name": "from",
          "type": "address"
        },
        {
          "internalType": "address",
          "name": "to",
          "type": "address"
        },
        {
          "internalType": "uint256",
          "name": "tokenId",
          "type": "uint256"
        },
        {
          "internalType": "bytes",
          "name": "data",
          "type": "bytes"
        }
      ],
      "name": "safeTransferFrom",
      "outputs": [],
      "stateMutability": "nonpayable",
      "type": "function"
    },
    {
      "inputs": [
        {
          "internalType": "address",
          "name": "operator",
          "type": "address"
        },
        {
          "internalType": "bool",
          "name": "approved",
          "type": "bool"
        }
      ],
      "name": "setApprovalForAll",
      "outputs": [],
      "stateMutability": "nonpayable",
      "type": "function"
    },
    {
      "inputs": [
        {
          "internalType": "bytes4",
          "name": "interfaceId",
          "type": "bytes4"
        }
      ],
      "name": "supportsInterface",
      "outputs": [
        {
          "internalType": "bool",
          "name": "",
          "type": "bool"
        }
      ],
      "stateMutability": "view",
      "type": "function"
    },
    {
      "inputs": [],
      "name": "symbol",
      "outputs": [
        {
          "internalType": "string",
          "name": "",
          "type": "string"
        }
      ],
      "stateMutability": "view",
      "type": "function"
    },
    {
      "inputs": [
        {
          "internalType": "uint256",
          "name": "tokenId",
          "type": "uint256"
        }
      ],
      "name": "tokenURI",
      "outputs": [
        {
          "internalType": "string",
          "name": "",
          "type": "string"
        }
      ],
      "stateMutability": "view",
      "type": "function"
    },
    {
      "inputs": [],
      "name": "totalSupply",
      "outputs": [
        {
          "internalType": "uint256",
          "name": "",
          "type": "uint256"
        }
      ],
      "stateMutability": "view",
      "type": "function"
    },
    {
      "inputs": [
        {
          "internalType": "address",
          "name": "from",
          "type": "address"
        },
        {
          "internalType": "address",
          "name": "to",
          "type": "address"
        },
        {
          "internalType": "uint256",
          "name": "tokenId",
          "type": "uint256"
        }
      ],
      "name": "transferFrom",
      "outputs": [],
      "stateMutability": "nonpayable",
      "type": "function"
    },
    {
      "inputs": [],
      "name": "withdraw",
      "outputs": [],
      "stateMutability": "nonpayable",
      "type": "function"
    },
    {
      "stateMutability": "payable",
      "type": "receive"
    }
  ],
  "bytecode": "0x60806040523480156200001157600080fd5b50604051620038bb380380620038bb83398181016040528101906200003791906200023b565b818181600090816200004a91906200050b565b5080600190816200005c91906200050b565b50505033600660006101000a81548173ffffffffffffffffffffffffffffffffffffffff021916908373ffffffffffffffffffffffffffffffffffffffff1602179055505050620005f2565b6000604051905090565b600080fd5b600080fd5b600080fd5b600080fd5b6000601f19601f8301169050919050565b7f4e487b7100000000000000000000000000000000000000000000000000000000600052604160045260246000fd5b6200011182620000c6565b810181811067ffffffffffffffff82111715620001335762000132620000d7565b5b80604052505050565b600062000148620000a8565b905062000156828262000106565b919050565b600067ffffffffffffffff821115620001795762000178620000d7565b5b6200018482620000c6565b9050602081019050919050565b60005b83811015620001b157808201518184015260208101905062000194565b60008484015250505050565b6000620001d4620001ce846200015b565b6200013c565b905082815260208101848484011115620001f357620001f2620000c1565b5b6200020084828562000191565b509392505050565b600082601f83011262000220576200021f620000bc565b5b815162000232848260208601620001bd565b91505092915050565b60008060408385031215620002555762000254620000b2565b5b600083015167ffffffffffffffff811115620002765762000275620000b7565b5b620002848582860162000208565b925050602083015167ffffffffffffffff811115620002a857620002a7620000b7565b5b620002b68582860162000208565b9150509250929050565b600081519050919050565b7f4e487b7100000000000000000000000000000000000000000000000000000000600052602260045260246000fd5b600060028204905060018216806200031357607f821691505b602082108103620003295762000328620002cb565b5b50919050565b60008190508160005260206000209050919050565b60006020601f8301049050919050565b600082821b905092915050565b600060088302620003937fffffffffffffffffffffffffffffffffffffffffffffffffffffffffffffffff8262000354565b6200039f868362000354565b95508019841693508086168417925050509392505050565b6000819050919050565b6000819050919050565b6000620003ec620003e6620003e084620003b7565b620003c1565b620003b7565b9050919050565b6000819050919050565b6200040883620003cb565b620004206200041782620003f3565b84845462000361565b825550505050565b600090565b6200043762000428565b62000444818484620003fd565b505050565b5b818110156200046c57620004606000826200042d565b6001810190506200044a565b5050565b601f821115620004bb5762000485816200032f565b620004908462000344565b81016020851015620004a0578190505b620004b8620004af8562000344565b83018262000449565b50505b505050565b600082821c905092915050565b6000620004e060001984600802620004c0565b1980831691505092915050565b6000620004fb8383620004cd565b9150826002028217905092915050565b6200051682620002c0565b67ffffffffffffffff811115620005325762000531620000d7565b5b6200053e8254620002fa565b6200054b82828562000470565b600060209050601f8311600181146200058357600084156200056e578287015190505b6200057a8582620004ed565b865550620005ea565b601f19841662000593866200032f565b60005b82811015620005bd5784890151825560018201915060208501945060208101905062000596565b86831015620005dd5784890151620005d9601f891682620004cd565b8355505b6001600288020188555050505b505050505050565b6132b980620006026000396000f3fe6080604052600436106101395760003560e01c80636352211e116100ab578063a0712d681161006f578063a0712d6814610454578063a22cb46514610470578063b88d4fde14610499578063c87b56dd146104c2578063d5abeb01146104ff578063e985e9c51461052a57610148565b80636352211e1461034557806366cf8fab1461038257806370a08231146103c15780638da5cb5b146103fe57806395d89b411461042957610148565b806318160ddd116100fd57806318160ddd1461024b5780631a7a98e21461027657806323b872dd146102b35780633ccfd60b146102dc57806342842e0e146102f35780634a878dfa1461031c57610148565b806301ffc9a71461015257806306fdde031461018f578063081812fc146101ba578063095ea7b3146101f757806312065fe01461022057610148565b3661014857610146610567565b005b610150610567565b005b34801561015e57600080fd5b5061017960048036038101906101749190611ffd565b61065c565b6040516101869190612045565b60405180910390f35b34801561019b57600080fd5b506101a461073e565b6040516101b191906120f0565b60405180910390f35b3480156101c657600080fd5b506101e160048036038101906101dc9190612148565b6107d0565b6040516101ee91906121b6565b60405180910390f35b34801561020357600080fd5b5061021e600480360381019061021991906121fd565b610816565b005b34801561022c57600080fd5b5061023561092d565b604051610242919061224c565b60405180910390f35b34801561025757600080fd5b50610260610935565b60405161026d919061224c565b60405180910390f35b34801561028257600080fd5b5061029d60048036038101906102989190612148565b61093b565b6040516102aa919061231f565b60405180910390f35b3480156102bf57600080fd5b506102da60048036038101906102d59190612341565b610a1f565b005b3480156102e857600080fd5b506102f1610567565b005b3480156102ff57600080fd5b5061031a60048036038101906103159190612341565b610a7f565b005b34801561032857600080fd5b50610343600480360381019061033e91906124c9565b610a9f565b005b34801561035157600080fd5b5061036c60048036038101906103679190612148565b610b8b565b60405161037991906121b6565b60405180910390f35b34801561038e57600080fd5b506103a960048036038101906103a49190612148565b610c11565b6040516103b893929190612525565b60405180910390f35b3480156103cd57600080fd5b506103e860048036038101906103e39190612563565b610cd0565b6040516103f5919061224c565b60405180910390f35b34801561040a57600080fd5b50610413610d87565b60405161042091906121b6565b60405180910390f35b34801561043557600080fd5b5061043e610dad565b60405161044b91906120f0565b60405180910390f35b61046e60048036038101906104699190612148565b610e3f565b005b34801561047c57600080fd5b50610497600480360381019061049291906125bc565b610f06565b005b3480156104a557600080fd5b506104c060048036038101906104bb919061269d565b610f1c565b005b3480156104ce57600080fd5b506104e960048036038101906104e49190612148565b610f7e565b6040516104f691906120f0565b60405180910390f35b34801561050b57600080fd5b50610514610fe6565b604051610521919061224c565b60405180910390f35b34801561053657600080fd5b50610551600480360381019061054c9190612720565b610fec565b60405161055e9190612045565b60405180910390f35b600660009054906101000a900473ffffffffffffffffffffffffffffffffffffffff1673ffffffffffffffffffffffffffffffffffffffff163373ffffffffffffffffffffffffffffffffffffffff16146105c157600080fd5b6000600660009054906101000a900473ffffffffffffffffffffffffffffffffffffffff1673ffffffffffffffffffffffffffffffffffffffff164760405161060990612791565b60006040518083038185875af1925050503d8060008114610646576040519150601f19603f3d011682016040523d82523d6000602084013e61064b565b606091505b505090508061065957600080fd5b50565b60007f80ac58cd000000000000000000000000000000000000000000000000000000007bffffffffffffffffffffffffffffffffffffffffffffffffffffffff1916827bffffffffffffffffffffffffffffffffffffffffffffffffffffffff1916148061072757507f5b5e139f000000000000000000000000000000000000000000000000000000007bffffffffffffffffffffffffffffffffffffffffffffffffffffffff1916827bffffffffffffffffffffffffffffffffffffffffffffffffffffffff1916145b80610737575061073682611080565b5b9050919050565b60606000805461074d906127d5565b80601f0160208091040260200160405190810160405280929190818152602001828054610779906127d5565b80156107c65780601f1061079b576101008083540402835291602001916107c6565b820191906000526020600020905b8154815290600101906020018083116107a957829003601f168201915b5050505050905090565b60006107db826110ea565b6004600083815260200190815260200160002060009054906101000a900473ffffffffffffffffffffffffffffffffffffffff169050919050565b600061082182610b8b565b90508073ffffffffffffffffffffffffffffffffffffffff168373ffffffffffffffffffffffffffffffffffffffff1603610891576040517f08c379a000000000000000000000000000000000000000000000000000000000815260040161088890612878565b60405180910390fd5b8073ffffffffffffffffffffffffffffffffffffffff166108b0611135565b73ffffffffffffffffffffffffffffffffffffffff1614806108df57506108de816108d9611135565b610fec565b5b61091e576040517f08c379a00000000000000000000000000000000000000000000000000000000081526004016109159061290a565b60405180910390fd5b610928838361113d565b505050565b600047905090565b60085481565b610943611f6e565b60096000838152602001908152602001600020604051806060016040529081600082018054610971906127d5565b80601f016020809104026020016040519081016040528092919081815260200182805461099d906127d5565b80156109ea5780601f106109bf576101008083540402835291602001916109ea565b820191906000526020600020905b8154815290600101906020018083116109cd57829003601f168201915b50505050508152602001600182015481526020016002820160009054906101000a900460ff1615151515815250509050919050565b610a30610a2a611135565b826111f6565b610a6f576040517f08c379a0000000000000000000000000000000000000000000000000000000008152600401610a669061299c565b60405180910390fd5b610a7a83838361128b565b505050565b610a9a83838360405180602001604052806000815250610f1c565b505050565b600660009054906101000a900473ffffffffffffffffffffffffffffffffffffffff1673ffffffffffffffffffffffffffffffffffffffff163373ffffffffffffffffffffffffffffffffffffffff1614610af957600080fd5b60076000815480929190610b0c906129eb565b91905055506040518060600160405280838152602001828152602001600015158152506009600060075481526020019081526020016000206000820151816000019081610b599190612bdf565b506020820151816001015560408201518160020160006101000a81548160ff0219169083151502179055509050505050565b600080610b9783611584565b9050600073ffffffffffffffffffffffffffffffffffffffff168173ffffffffffffffffffffffffffffffffffffffff1603610c08576040517f08c379a0000000000000000000000000000000000000000000000000000000008152600401610bff90612cfd565b60405180910390fd5b80915050919050565b6009602052806000526040600020600091509050806000018054610c34906127d5565b80601f0160208091040260200160405190810160405280929190818152602001828054610c60906127d5565b8015610cad5780601f10610c8257610100808354040283529160200191610cad565b820191906000526020600020905b815481529060010190602001808311610c9057829003601f168201915b5050505050908060010154908060020160009054906101000a900460ff16905083565b60008073ffffffffffffffffffffffffffffffffffffffff168273ffffffffffffffffffffffffffffffffffffffff1603610d40576040517f08c379a0000000000000000000000000000000000000000000000000000000008152600401610d3790612d8f565b60405180910390fd5b600360008373ffffffffffffffffffffffffffffffffffffffff1673ffffffffffffffffffffffffffffffffffffffff168152602001908152602001600020549050919050565b600660009054906101000a900473ffffffffffffffffffffffffffffffffffffffff1681565b606060018054610dbc906127d5565b80601f0160208091040260200160405190810160405280929190818152602001828054610de8906127d5565b8015610e355780601f10610e0a57610100808354040283529160200191610e35565b820191906000526020600020905b815481529060010190602001808311610e1857829003601f168201915b5050505050905090565b60008103610e4c57600080fd5b600754811115610e5b57600080fd5b600015156009600083815260200190815260200160002060020160009054906101000a900460ff16151514610e8f57600080fd5b6009600082815260200190815260200160002060010154341015610eb257600080fd5b60016009600083815260200190815260200160002060020160006101000a81548160ff02191690831515021790555060086000815480929190610ef4906129eb565b9190505550610f0333826115c1565b50565b610f18610f11611135565b83836115df565b5050565b610f2d610f27611135565b836111f6565b610f6c576040517f08c379a0000000000000000000000000000000000000000000000000000000008152600401610f639061299c565b60405180910390fd5b610f788484848461174b565b50505050565b6060610f89826110ea565b6000610f936117a7565b90506000815111610fb35760405180602001604052806000815250610fde565b80610fbd846117be565b604051602001610fce929190612deb565b6040516020818303038152906040525b915050919050565b60075481565b6000600560008473ffffffffffffffffffffffffffffffffffffffff1673ffffffffffffffffffffffffffffffffffffffff16815260200190815260200160002060008373ffffffffffffffffffffffffffffffffffffffff1673ffffffffffffffffffffffffffffffffffffffff16815260200190815260200160002060009054906101000a900460ff16905092915050565b60007f01ffc9a7000000000000000000000000000000000000000000000000000000007bffffffffffffffffffffffffffffffffffffffffffffffffffffffff1916827bffffffffffffffffffffffffffffffffffffffffffffffffffffffff1916149050919050565b6110f38161188c565b611132576040517f08c379a000000000000000000000000000000000000000000000000000000000815260040161112990612cfd565b60405180910390fd5b50565b600033905090565b816004600083815260200190815260200160002060006101000a81548173ffffffffffffffffffffffffffffffffffffffff021916908373ffffffffffffffffffffffffffffffffffffffff160217905550808273ffffffffffffffffffffffffffffffffffffffff166111b083610b8b565b73ffffffffffffffffffffffffffffffffffffffff167f8c5be1e5ebec7d5bd14f71427d1e84f3dd0314c0f7b2291e5b200ac8c7c3b92560405160405180910390a45050565b60008061120283610b8b565b90508073ffffffffffffffffffffffffffffffffffffffff168473ffffffffffffffffffffffffffffffffffffffff16148061124457506112438185610fec565b5b8061128257508373ffffffffffffffffffffffffffffffffffffffff1661126a846107d0565b73ffffffffffffffffffffffffffffffffffffffff16145b91505092915050565b8273ffffffffffffffffffffffffffffffffffffffff166112ab82610b8b565b73ffffffffffffffffffffffffffffffffffffffff1614611301576040517f08c379a00000000000000000000000000000000000000000000000000000000081526004016112f890612e81565b60405180910390fd5b600073ffffffffffffffffffffffffffffffffffffffff168273ffffffffffffffffffffffffffffffffffffffff1603611370576040517f08c379a000000000000000000000000000000000000000000000000000000000815260040161136790612f13565b60405180910390fd5b61137d83838360016118cd565b8273ffffffffffffffffffffffffffffffffffffffff1661139d82610b8b565b73ffffffffffffffffffffffffffffffffffffffff16146113f3576040517f08c379a00000000000000000000000000000000000000000000000000000000081526004016113ea90612e81565b60405180910390fd5b6004600082815260200190815260200160002060006101000a81549073ffffffffffffffffffffffffffffffffffffffff02191690556001600360008573ffffffffffffffffffffffffffffffffffffffff1673ffffffffffffffffffffffffffffffffffffffff168152602001908152602001600020600082825403925050819055506001600360008473ffffffffffffffffffffffffffffffffffffffff1673ffffffffffffffffffffffffffffffffffffffff16815260200190815260200160002060008282540192505081905550816002600083815260200190815260200160002060006101000a81548173ffffffffffffffffffffffffffffffffffffffff021916908373ffffffffffffffffffffffffffffffffffffffff160217905550808273ffffffffffffffffffffffffffffffffffffffff168473ffffffffffffffffffffffffffffffffffffffff167fddf252ad1be2c89b69c2b068fc378daa952ba7f163c4a11628f55a4df523b3ef60405160405180910390a461157f83838360016119f3565b505050565b60006002600083815260200190815260200160002060009054906101000a900473ffffffffffffffffffffffffffffffffffffffff169050919050565b6115db8282604051806020016040528060008152506119f9565b5050565b8173ffffffffffffffffffffffffffffffffffffffff168373ffffffffffffffffffffffffffffffffffffffff160361164d576040517f08c379a000000000000000000000000000000000000000000000000000000000815260040161164490612f7f565b60405180910390fd5b80600560008573ffffffffffffffffffffffffffffffffffffffff1673ffffffffffffffffffffffffffffffffffffffff16815260200190815260200160002060008473ffffffffffffffffffffffffffffffffffffffff1673ffffffffffffffffffffffffffffffffffffffff16815260200190815260200160002060006101000a81548160ff0219169083151502179055508173ffffffffffffffffffffffffffffffffffffffff168373ffffffffffffffffffffffffffffffffffffffff167f17307eab39ab6107e8899845ad3d59bd9653f200f220920489ca2b5937696c318360405161173e9190612045565b60405180910390a3505050565b61175684848461128b565b61176284848484611a54565b6117a1576040517f08c379a000000000000000000000000000000000000000000000000000000000815260040161179890613011565b60405180910390fd5b50505050565b606060405180602001604052806000815250905090565b6060600060016117cd84611bdb565b01905060008167ffffffffffffffff8111156117ec576117eb61239e565b5b6040519080825280601f01601f19166020018201604052801561181e5781602001600182028036833780820191505090505b509050600082602001820190505b600115611881578080600190039150507f3031323334353637383961626364656600000000000000000000000000000000600a86061a8153600a858161187557611874613031565b5b0494506000850361182c575b819350505050919050565b60008073ffffffffffffffffffffffffffffffffffffffff166118ae83611584565b73ffffffffffffffffffffffffffffffffffffffff1614159050919050565b60018111156119ed57600073ffffffffffffffffffffffffffffffffffffffff168473ffffffffffffffffffffffffffffffffffffffff16146119615780600360008673ffffffffffffffffffffffffffffffffffffffff1673ffffffffffffffffffffffffffffffffffffffff16815260200190815260200160002060008282546119599190613060565b925050819055505b600073ffffffffffffffffffffffffffffffffffffffff168373ffffffffffffffffffffffffffffffffffffffff16146119ec5780600360008573ffffffffffffffffffffffffffffffffffffffff1673ffffffffffffffffffffffffffffffffffffffff16815260200190815260200160002060008282546119e49190613094565b925050819055505b5b50505050565b50505050565b611a038383611d2e565b611a106000848484611a54565b611a4f576040517f08c379a0000000000000000000000000000000000000000000000000000000008152600401611a4690613011565b60405180910390fd5b505050565b6000611a758473ffffffffffffffffffffffffffffffffffffffff16611f4b565b15611bce578373ffffffffffffffffffffffffffffffffffffffff1663150b7a02611a9e611135565b8786866040518563ffffffff1660e01b8152600401611ac0949392919061311d565b6020604051808303816000875af1925050508015611afc57506040513d601f19601f82011682018060405250810190611af9919061317e565b60015b611b7e573d8060008114611b2c576040519150601f19603f3d011682016040523d82523d6000602084013e611b31565b606091505b506000815103611b76576040517f08c379a0000000000000000000000000000000000000000000000000000000008152600401611b6d90613011565b60405180910390fd5b805181602001fd5b63150b7a0260e01b7bffffffffffffffffffffffffffffffffffffffffffffffffffffffff1916817bffffffffffffffffffffffffffffffffffffffffffffffffffffffff191614915050611bd3565b600190505b949350505050565b600080600090507a184f03e93ff9f4daa797ed6e38ed64bf6a1f0100000000000000008310611c39577a184f03e93ff9f4daa797ed6e38ed64bf6a1f0100000000000000008381611c2f57611c2e613031565b5b0492506040810190505b6d04ee2d6d415b85acef81000000008310611c76576d04ee2d6d415b85acef81000000008381611c6c57611c6b613031565b5b0492506020810190505b662386f26fc100008310611ca557662386f26fc100008381611c9b57611c9a613031565b5b0492506010810190505b6305f5e1008310611cce576305f5e1008381611cc457611cc3613031565b5b0492506008810190505b6127108310611cf3576127108381611ce957611ce8613031565b5b0492506004810190505b60648310611d165760648381611d0c57611d0b613031565b5b0492506002810190505b600a8310611d25576001810190505b80915050919050565b600073ffffffffffffffffffffffffffffffffffffffff168273ffffffffffffffffffffffffffffffffffffffff1603611d9d576040517f08c379a0000000000000000000000000000000000000000000000000000000008152600401611d94906131f7565b60405180910390fd5b611da68161188c565b15611de6576040517f08c379a0000000000000000000000000000000000000000000000000000000008152600401611ddd90613263565b60405180910390fd5b611df46000838360016118cd565b611dfd8161188c565b15611e3d576040517f08c379a0000000000000000000000000000000000000000000000000000000008152600401611e3490613263565b60405180910390fd5b6001600360008473ffffffffffffffffffffffffffffffffffffffff1673ffffffffffffffffffffffffffffffffffffffff16815260200190815260200160002060008282540192505081905550816002600083815260200190815260200160002060006101000a81548173ffffffffffffffffffffffffffffffffffffffff021916908373ffffffffffffffffffffffffffffffffffffffff160217905550808273ffffffffffffffffffffffffffffffffffffffff16600073ffffffffffffffffffffffffffffffffffffffff167fddf252ad1be2c89b69c2b068fc378daa952ba7f163c4a11628f55a4df523b3ef60405160405180910390a4611f476000838360016119f3565b5050565b6000808273ffffffffffffffffffffffffffffffffffffffff163b119050919050565b604051806060016040528060608152602001600081526020016000151581525090565b6000604051905090565b600080fd5b600080fd5b60007fffffffff0000000000000000000000000000000000000000000000000000000082169050919050565b611fda81611fa5565b8114611fe557600080fd5b50565b600081359050611ff781611fd1565b92915050565b60006020828403121561201357612012611f9b565b5b600061202184828501611fe8565b91505092915050565b60008115159050919050565b61203f8161202a565b82525050565b600060208201905061205a6000830184612036565b92915050565b600081519050919050565b600082825260208201905092915050565b60005b8381101561209a57808201518184015260208101905061207f565b60008484015250505050565b6000601f19601f8301169050919050565b60006120c282612060565b6120cc818561206b565b93506120dc81856020860161207c565b6120e5816120a6565b840191505092915050565b6000602082019050818103600083015261210a81846120b7565b905092915050565b6000819050919050565b61212581612112565b811461213057600080fd5b50565b6000813590506121428161211c565b92915050565b60006020828403121561215e5761215d611f9b565b5b600061216c84828501612133565b91505092915050565b600073ffffffffffffffffffffffffffffffffffffffff82169050919050565b60006121a082612175565b9050919050565b6121b081612195565b82525050565b60006020820190506121cb60008301846121a7565b92915050565b6121da81612195565b81146121e557600080fd5b50565b6000813590506121f7816121d1565b92915050565b6000806040838503121561221457612213611f9b565b5b6000612222858286016121e8565b925050602061223385828601612133565b9150509250929050565b61224681612112565b82525050565b6000602082019050612261600083018461223d565b92915050565b600082825260208201905092915050565b600061228382612060565b61228d8185612267565b935061229d81856020860161207c565b6122a6816120a6565b840191505092915050565b6122ba81612112565b82525050565b6122c98161202a565b82525050565b600060608301600083015184820360008601526122ec8282612278565b915050602083015161230160208601826122b1565b50604083015161231460408601826122c0565b508091505092915050565b6000602082019050818103600083015261233981846122cf565b905092915050565b60008060006060848603121561235a57612359611f9b565b5b6000612368868287016121e8565b9350506020612379868287016121e8565b925050604061238a86828701612133565b9150509250925092565b600080fd5b600080fd5b7f4e487b7100000000000000000000000000000000000000000000000000000000600052604160045260246000fd5b6123d6826120a6565b810181811067ffffffffffffffff821117156123f5576123f461239e565b5b80604052505050565b6000612408611f91565b905061241482826123cd565b919050565b600067ffffffffffffffff8211156124345761243361239e565b5b61243d826120a6565b9050602081019050919050565b82818337600083830152505050565b600061246c61246784612419565b6123fe565b90508281526020810184848401111561248857612487612399565b5b61249384828561244a565b509392505050565b600082601f8301126124b0576124af612394565b5b81356124c0848260208601612459565b91505092915050565b600080604083850312156124e0576124df611f9b565b5b600083013567ffffffffffffffff8111156124fe576124fd611fa0565b5b61250a8582860161249b565b925050602061251b85828601612133565b9150509250929050565b6000606082019050818103600083015261253f81866120b7565b905061254e602083018561223d565b61255b6040830184612036565b949350505050565b60006020828403121561257957612578611f9b565b5b6000612587848285016121e8565b91505092915050565b6125998161202a565b81146125a457600080fd5b50565b6000813590506125b681612590565b92915050565b600080604083850312156125d3576125d2611f9b565b5b60006125e1858286016121e8565b92505060206125f2858286016125a7565b9150509250929050565b600067ffffffffffffffff8211156126175761261661239e565b5b612620826120a6565b9050602081019050919050565b600061264061263b846125fc565b6123fe565b90508281526020810184848401111561265c5761265b612399565b5b61266784828561244a565b509392505050565b600082601f83011261268457612683612394565b5b813561269484826020860161262d565b91505092915050565b600080600080608085870312156126b7576126b6611f9b565b5b60006126c5878288016121e8565b94505060206126d6878288016121e8565b93505060406126e787828801612133565b925050606085013567ffffffffffffffff81111561270857612707611fa0565b5b6127148782880161266f565b91505092959194509250565b6000806040838503121561273757612736611f9b565b5b6000612745858286016121e8565b9250506020612756858286016121e8565b9150509250929050565b600081905092915050565b50565b600061277b600083612760565b91506127868261276b565b600082019050919050565b600061279c8261276e565b9150819050919050565b7f4e487b7100000000000000000000000000000000000000000000000000000000600052602260045260246000fd5b600060028204905060018216806127ed57607f821691505b602082108103612800576127ff6127a6565b5b50919050565b7f4552433732313a20617070726f76616c20746f2063757272656e74206f776e6560008201527f7200000000000000000000000000000000000000000000000000000000000000602082015250565b600061286260218361206b565b915061286d82612806565b604082019050919050565b6000602082019050818103600083015261289181612855565b9050919050565b7f4552433732313a20617070726f76652063616c6c6572206973206e6f7420746f60008201527f6b656e206f776e6572206f7220617070726f76656420666f7220616c6c000000602082015250565b60006128f4603d8361206b565b91506128ff82612898565b604082019050919050565b60006020820190508181036000830152612923816128e7565b9050919050565b7f4552433732313a2063616c6c6572206973206e6f7420746f6b656e206f776e6560008201527f72206f7220617070726f76656400000000000000000000000000000000000000602082015250565b6000612986602d8361206b565b91506129918261292a565b604082019050919050565b600060208201905081810360008301526129b581612979565b9050919050565b7f4e487b7100000000000000000000000000000000000000000000000000000000600052601160045260246000fd5b60006129f682612112565b91507fffffffffffffffffffffffffffffffffffffffffffffffffffffffffffffffff8203612a2857612a276129bc565b5b600182019050919050565b60008190508160005260206000209050919050565b60006020601f8301049050919050565b600082821b905092915050565b600060088302612a957fffffffffffffffffffffffffffffffffffffffffffffffffffffffffffffffff82612a58565b612a9f8683612a58565b95508019841693508086168417925050509392505050565b6000819050919050565b6000612adc612ad7612ad284612112565b612ab7565b612112565b9050919050565b6000819050919050565b612af683612ac1565b612b0a612b0282612ae3565b848454612a65565b825550505050565b600090565b612b1f612b12565b612b2a818484612aed565b505050565b5b81811015612b4e57612b43600082612b17565b600181019050612b30565b5050565b601f821115612b9357612b6481612a33565b612b6d84612a48565b81016020851015612b7c578190505b612b90612b8885612a48565b830182612b2f565b50505b505050565b600082821c905092915050565b6000612bb660001984600802612b98565b1980831691505092915050565b6000612bcf8383612ba5565b9150826002028217905092915050565b612be882612060565b67ffffffffffffffff811115612c0157612c0061239e565b5b612c0b82546127d5565b612c16828285612b52565b600060209050601f831160018114612c495760008415612c37578287015190505b612c418582612bc3565b865550612ca9565b601f198416612c5786612a33565b60005b82811015612c7f57848901518255600182019150602085019450602081019050612c5a565b86831015612c9c5784890151612c98601f891682612ba5565b8355505b6001600288020188555050505b505050505050565b7f4552433732313a20696e76616c696420746f6b656e2049440000000000000000600082015250565b6000612ce760188361206b565b9150612cf282612cb1565b602082019050919050565b60006020820190508181036000830152612d1681612cda565b9050919050565b7f4552433732313a2061646472657373207a65726f206973206e6f74206120766160008201527f6c6964206f776e65720000000000000000000000000000000000000000000000602082015250565b6000612d7960298361206b565b9150612d8482612d1d565b604082019050919050565b60006020820190508181036000830152612da881612d6c565b9050919050565b600081905092915050565b6000612dc582612060565b612dcf8185612daf565b9350612ddf81856020860161207c565b80840191505092915050565b6000612df78285612dba565b9150612e038284612dba565b91508190509392505050565b7f4552433732313a207472616e736665722066726f6d20696e636f72726563742060008201527f6f776e6572000000000000000000000000000000000000000000000000000000602082015250565b6000612e6b60258361206b565b9150612e7682612e0f565b604082019050919050565b60006020820190508181036000830152612e9a81612e5e565b9050919050565b7f4552433732313a207472616e7366657220746f20746865207a65726f2061646460008201527f7265737300000000000000000000000000000000000000000000000000000000602082015250565b6000612efd60248361206b565b9150612f0882612ea1565b604082019050919050565b60006020820190508181036000830152612f2c81612ef0565b9050919050565b7f4552433732313a20617070726f766520746f2063616c6c657200000000000000600082015250565b6000612f6960198361206b565b9150612f7482612f33565b602082019050919050565b60006020820190508181036000830152612f9881612f5c565b9050919050565b7f4552433732313a207472616e7366657220746f206e6f6e20455243373231526560008201527f63656976657220696d706c656d656e7465720000000000000000000000000000602082015250565b6000612ffb60328361206b565b915061300682612f9f565b604082019050919050565b6000602082019050818103600083015261302a81612fee565b9050919050565b7f4e487b7100000000000000000000000000000000000000000000000000000000600052601260045260246000fd5b600061306b82612112565b915061307683612112565b925082820390508181111561308e5761308d6129bc565b5b92915050565b600061309f82612112565b91506130aa83612112565b92508282019050808211156130c2576130c16129bc565b5b92915050565b600081519050919050565b600082825260208201905092915050565b60006130ef826130c8565b6130f981856130d3565b935061310981856020860161207c565b613112816120a6565b840191505092915050565b600060808201905061313260008301876121a7565b61313f60208301866121a7565b61314c604083018561223d565b818103606083015261315e81846130e4565b905095945050505050565b60008151905061317881611fd1565b92915050565b60006020828403121561319457613193611f9b565b5b60006131a284828501613169565b91505092915050565b7f4552433732313a206d696e7420746f20746865207a65726f2061646472657373600082015250565b60006131e160208361206b565b91506131ec826131ab565b602082019050919050565b60006020820190508181036000830152613210816131d4565b9050919050565b7f4552433732313a20746f6b656e20616c7265616479206d696e74656400000000600082015250565b600061324d601c8361206b565b915061325882613217565b602082019050919050565b6000602082019050818103600083015261327c81613240565b905091905056fea264697066735822122032f80d5b1c7838b58262b00aa0e6421201bf08c661d9c0f0135783f34eff838364736f6c63430008110033",
  "linkReferences": {},
  "deployedLinkReferences": {}
}