{
  "_format": "hh-sol-artifact-1",
  "contractName": "ETHDaddy",
  "sourceName": "contracts/ETHDaddy.sol",
  "abi": [
    {
      "inputs": [
        {
          "internalType": "string",
          "name": "_name",
          "type": "string"
        },
        {
          "internalType": "string",
          "name": "_symbol",
          "type": "string"
        }
      ],
      "stateMutability": "nonpayable",
      "type": "constructor"
    },
    {
      "anonymous": false,
      "inputs": [
        {
          "indexed": true,
          "internalType": "address",
          "name": "owner",
          "type": "address"
        },
        {
          "indexed": true,
          "internalType": "address",
          "name": "approved",
          "type": "address"
        },
        {
          "indexed": true,
          "internalType": "uint256",
          "name": "tokenId",
          "type": "uint256"
        }
      ],
      "name": "Approval",
      "type": "event"
    },
    {
      "anonymous": false,
      "inputs": [
        {
          "indexed": true,
          "internalType": "address",
          "name": "owner",
          "type": "address"
        },
        {
          "indexed": true,
          "internalType": "address",
          "name": "operator",
          "type": "address"
        },
        {
          "indexed": false,
          "internalType": "bool",
          "name": "approved",
          "type": "bool"
        }
      ],
      "name": "ApprovalForAll",
      "type": "event"
    },
    {
      "anonymous": false,
      "inputs": [
        {
          "indexed": true,
          "internalType": "address",
          "name": "from",
          "type": "address"
        },
        {
          "indexed": true,
          "internalType": "address",
          "name": "to",
          "type": "address"
        },
        {
          "indexed": true,
          "internalType": "uint256",
          "name": "tokenId",
          "type": "uint256"
        }
      ],
      "name": "Transfer",
      "type": "event"
    },
    {
      "inputs": [
        {
          "internalType": "address",
          "name": "to",
          "type": "address"
        },
        {
          "internalType": "uint256",
          "name": "tokenId",
          "type": "uint256"
        }
      ],
      "name": "approve",
      "outputs": [],
      "stateMutability": "nonpayable",
      "type": "function"
    },
    {
      "inputs": [
        {
          "internalType": "address",
          "name": "owner",
          "type": "address"
        }
      ],
      "name": "balanceOf",
      "outputs": [
        {
          "internalType": "uint256",
          "name": "",
          "type": "uint256"
        }
      ],
      "stateMutability": "view",
      "type": "function"
    },
    {
      "inputs": [
        {
          "internalType": "uint256",
          "name": "",
          "type": "uint256"
        }
      ],
      "name": "domains",
      "outputs": [
        {
          "internalType": "string",
          "name": "name",
          "type": "string"
        },
        {
          "internalType": "uint256",
          "name": "cost",
          "type": "uint256"
        },
        {
          "internalType": "bool",
          "name": "isOwned",
          "type": "bool"
        }
      ],
      "stateMutability": "view",
      "type": "function"
    },
    {
      "inputs": [
        {
          "internalType": "uint256",
          "name": "tokenId",
          "type": "uint256"
        }
      ],
      "name": "getApproved",
      "outputs": [
        {
          "internalType": "address",
          "name": "",
          "type": "address"
        }
      ],
      "stateMutability": "view",
      "type": "function"
    },
    {
      "inputs": [],
      "name": "getBalance",
      "outputs": [
        {
          "internalType": "uint256",
          "name": "",
          "type": "uint256"
        }
      ],
      "stateMutability": "view",
      "type": "function"
    },
    {
      "inputs": [
        {
          "internalType": "uint256",
          "name": "_id",
          "type": "uint256"
        }
      ],
      "name": "getDomain",
      "outputs": [
        {
          "components": [
            {
              "internalType": "string",
              "name": "name",
              "type": "string"
            },
            {
              "internalType": "uint256",
              "name": "cost",
              "type": "uint256"
            },
            {
              "internalType": "bool",
              "name": "isOwned",
              "type": "bool"
            }
          ],
          "internalType": "struct ETHDaddy.Domain",
          "name": "",
          "type": "tuple"
        }
      ],
      "stateMutability": "view",
      "type": "function"
    },
    {
      "inputs": [
        {
          "internalType": "address",
          "name": "owner",
          "type": "address"
        },
        {
          "internalType": "address",
          "name": "operator",
          "type": "address"
        }
      ],
      "name": "isApprovedForAll",
      "outputs": [
        {
          "internalType": "bool",
          "name": "",
          "type": "bool"
        }
      ],
      "stateMutability": "view",
      "type": "function"
    },
    {
      "inputs": [
        {
          "internalType": "string",
          "name": "_name",
          "type": "string"
        },
        {
          "internalType": "uint256",
          "name": "_cost",
          "type": "uint256"
        }
      ],
      "name": "list",
      "outputs": [],
      "stateMutability": "nonpayable",
      "type": "function"
    },
    {
      "inputs": [],
      "name": "maxSupply",
      "outputs": [
        {
          "internalType": "uint256",
          "name": "",
          "type": "uint256"
        }
      ],
      "stateMutability": "view",
      "type": "function"
    },
    {
      "inputs": [
        {
          "internalType": "uint256",
          "name": "_id",
          "type": "uint256"
        }
      ],
      "name": "mint",
      "outputs": [],
      "stateMutability": "payable",
      "type": "function"
    },
    {
      "inputs": [],
      "name": "name",
      "outputs": [
        {
          "internalType": "string",
          "name": "",
          "type": "string"
        }
      ],
      "stateMutability": "view",
      "type": "function"
    },
    {
      "inputs": [],
      "name": "owner",
      "outputs": [
        {
          "internalType": "address",
          "name": "",
          "type": "address"
        }
      ],
      "stateMutability": "view",
      "type": "function"
    },
    {
      "inputs": [
        {
          "internalType": "uint256",
          "name": "tokenId",
          "type": "uint256"
        }
      ],
      "name": "ownerOf",
      "outputs": [
        {
          "internalType": "address",
          "name": "",
          "type": "address"
        }
      ],
      "stateMutability": "view",
      "type": "function"
    },
    {
      "inputs": [
        {
          "internalType": "address",
          "name": "from",
          "type": "address"
        },
        {
          "internalType": "address",
          "name": "to",
          "type": "address"
        },
        {
          "internalType": "uint256",
          "name": "tokenId",
          "type": "uint256"
        }
      ],
      "name": "safeTransferFrom",
      "outputs": [],
      "stateMutability": "nonpayable",
      "type": "function"
    },
    {
      "inputs": [
        {
          "internalType": "address",
          "name": "from",
          "type": "address"
        },
        {
          "internalType": "address",
          "name": "to",
          "type": "address"
        },
        {
          "internalType": "uint256",
          "name": "tokenId",
          "type": "uint256"
        },
        {
          "internalType": "bytes",
          "name": "data",
          "type": "bytes"
        }
      ],
      "name": "safeTransferFrom",
      "outputs": [],
      "stateMutability": "nonpayable",
      "type": "function"
    },
    {
      "inputs": [
        {
          "internalType": "address",
          "name": "operator",
          "type": "address"
        },
        {
          "internalType": "bool",
          "name": "approved",
          "type": "bool"
        }
      ],
      "name": "setApprovalForAll",
      "outputs": [],
      "stateMutability": "nonpayable",
      "type": "function"
    },
    {
      "inputs": [
        {
          "internalType": "bytes4",
          "name": "interfaceId",
          "type": "bytes4"
        }
      ],
      "name": "supportsInterface",
      "outputs": [
        {
          "internalType": "bool",
          "name": "",
          "type": "bool"
        }
      ],
      "stateMutability": "view",
      "type": "function"
    },
    {
      "inputs": [],
      "name": "symbol",
      "outputs": [
        {
          "internalType": "string",
          "name": "",
          "type": "string"
        }
      ],
      "stateMutability": "view",
      "type": "function"
    },
    {
      "inputs": [
        {
          "internalType": "uint256",
          "name": "tokenId",
          "type": "uint256"
        }
      ],
      "name": "tokenURI",
      "outputs": [
        {
          "internalType": "string",
          "name": "",
          "type": "string"
        }
      ],
      "stateMutability": "view",
      "type": "function"
    },
    {
      "inputs": [],
      "name": "totalSupply",
      "outputs": [
        {
          "internalType": "uint256",
          "name": "",
          "type": "uint256"
        }
      ],
      "stateMutability": "view",
      "type": "function"
    },
    {
      "inputs": [
        {
          "internalType": "address",
          "name": "from",
          "type": "address"
        },
        {
          "internalType": "address",
          "name": "to",
          "type": "address"
        },
        {
          "internalType": "uint256",
          "name": "tokenId",
          "type": "uint256"
        }
      ],
      "name": "transferFrom",
      "outputs": [],
      "stateMutability": "nonpayable",
      "type": "function"
    },
    {
      "inputs": [],
      "name": "withdraw",
      "outputs": [],
      "stateMutability": "nonpayable",
      "type": "function"
    }
  ],
  "bytecode": "0x60806040523480156200001157600080fd5b50604051620039a1380380620039a183398181016040528101906200003791906200023b565b818181600090816200004a91906200050b565b5080600190816200005c91906200050b565b50505033600660006101000a81548173ffffffffffffffffffffffffffffffffffffffff021916908373ffffffffffffffffffffffffffffffffffffffff1602179055505050620005f2565b6000604051905090565b600080fd5b600080fd5b600080fd5b600080fd5b6000601f19601f8301169050919050565b7f4e487b7100000000000000000000000000000000000000000000000000000000600052604160045260246000fd5b6200011182620000c6565b810181811067ffffffffffffffff82111715620001335762000132620000d7565b5b80604052505050565b600062000148620000a8565b905062000156828262000106565b919050565b600067ffffffffffffffff821115620001795762000178620000d7565b5b6200018482620000c6565b9050602081019050919050565b60005b83811015620001b157808201518184015260208101905062000194565b60008484015250505050565b6000620001d4620001ce846200015b565b6200013c565b905082815260208101848484011115620001f357620001f2620000c1565b5b6200020084828562000191565b509392505050565b600082601f83011262000220576200021f620000bc565b5b815162000232848260208601620001bd565b91505092915050565b60008060408385031215620002555762000254620000b2565b5b600083015167ffffffffffffffff811115620002765762000275620000b7565b5b620002848582860162000208565b925050602083015167ffffffffffffffff811115620002a857620002a7620000b7565b5b620002b68582860162000208565b9150509250929050565b600081519050919050565b7f4e487b7100000000000000000000000000000000000000000000000000000000600052602260045260246000fd5b600060028204905060018216806200031357607f821691505b602082108103620003295762000328620002cb565b5b50919050565b60008190508160005260206000209050919050565b60006020601f8301049050919050565b600082821b905092915050565b600060088302620003937fffffffffffffffffffffffffffffffffffffffffffffffffffffffffffffffff8262000354565b6200039f868362000354565b95508019841693508086168417925050509392505050565b6000819050919050565b6000819050919050565b6000620003ec620003e6620003e084620003b7565b620003c1565b620003b7565b9050919050565b6000819050919050565b6200040883620003cb565b620004206200041782620003f3565b84845462000361565b825550505050565b600090565b6200043762000428565b62000444818484620003fd565b505050565b5b818110156200046c57620004606000826200042d565b6001810190506200044a565b5050565b601f821115620004bb5762000485816200032f565b620004908462000344565b81016020851015620004a0578190505b620004b8620004af8562000344565b83018262000449565b50505b505050565b600082821c905092915050565b6000620004e060001984600802620004c0565b1980831691505092915050565b6000620004fb8383620004cd565b9150826002028217905092915050565b6200051682620002c0565b67ffffffffffffffff811115620005325762000531620000d7565b5b6200053e8254620002fa565b6200054b82828562000470565b600060209050601f8311600181146200058357600084156200056e578287015190505b6200057a8582620004ed565b865550620005ea565b601f19841662000593866200032f565b60005b82811015620005bd5784890151825560018201915060208501945060208101905062000596565b86831015620005dd5784890151620005d9601f891682620004cd565b8355505b6001600288020188555050505b505050505050565b61339f80620006026000396000f3fe6080604052600436106101355760003560e01c80636352211e116100ab578063a0712d681161006f578063a0712d681461043c578063a22cb46514610458578063b88d4fde14610481578063c87b56dd146104aa578063d5abeb01146104e7578063e985e9c51461051257610135565b80636352211e1461032d57806366cf8fab1461036a57806370a08231146103a95780638da5cb5b146103e657806395d89b411461041157610135565b806318160ddd116100fd57806318160ddd146102335780631a7a98e21461025e57806323b872dd1461029b5780633ccfd60b146102c457806342842e0e146102db5780634a878dfa1461030457610135565b806301ffc9a71461013a57806306fdde0314610177578063081812fc146101a2578063095ea7b3146101df57806312065fe014610208575b600080fd5b34801561014657600080fd5b50610161600480360381019061015c9190612051565b61054f565b60405161016e9190612099565b60405180910390f35b34801561018357600080fd5b5061018c610631565b6040516101999190612144565b60405180910390f35b3480156101ae57600080fd5b506101c960048036038101906101c4919061219c565b6106c3565b6040516101d6919061220a565b60405180910390f35b3480156101eb57600080fd5b5061020660048036038101906102019190612251565b610709565b005b34801561021457600080fd5b5061021d610820565b60405161022a91906122a0565b60405180910390f35b34801561023f57600080fd5b50610248610828565b60405161025591906122a0565b60405180910390f35b34801561026a57600080fd5b506102856004803603810190610280919061219c565b61082e565b6040516102929190612373565b60405180910390f35b3480156102a757600080fd5b506102c260048036038101906102bd9190612395565b610912565b005b3480156102d057600080fd5b506102d9610972565b005b3480156102e757600080fd5b5061030260048036038101906102fd9190612395565b610a9d565b005b34801561031057600080fd5b5061032b6004803603810190610326919061251d565b610abd565b005b34801561033957600080fd5b50610354600480360381019061034f919061219c565b610bdf565b604051610361919061220a565b60405180910390f35b34801561037657600080fd5b50610391600480360381019061038c919061219c565b610c65565b6040516103a093929190612579565b60405180910390f35b3480156103b557600080fd5b506103d060048036038101906103cb91906125b7565b610d24565b6040516103dd91906122a0565b60405180910390f35b3480156103f257600080fd5b506103fb610ddb565b604051610408919061220a565b60405180910390f35b34801561041d57600080fd5b50610426610e01565b6040516104339190612144565b60405180910390f35b6104566004803603810190610451919061219c565b610e93565b005b34801561046457600080fd5b5061047f600480360381019061047a9190612610565b610f5a565b005b34801561048d57600080fd5b506104a860048036038101906104a391906126f1565b610f70565b005b3480156104b657600080fd5b506104d160048036038101906104cc919061219c565b610fd2565b6040516104de9190612144565b60405180910390f35b3480156104f357600080fd5b506104fc61103a565b60405161050991906122a0565b60405180910390f35b34801561051e57600080fd5b5061053960048036038101906105349190612774565b611040565b6040516105469190612099565b60405180910390f35b60007f80ac58cd000000000000000000000000000000000000000000000000000000007bffffffffffffffffffffffffffffffffffffffffffffffffffffffff1916827bffffffffffffffffffffffffffffffffffffffffffffffffffffffff1916148061061a57507f5b5e139f000000000000000000000000000000000000000000000000000000007bffffffffffffffffffffffffffffffffffffffffffffffffffffffff1916827bffffffffffffffffffffffffffffffffffffffffffffffffffffffff1916145b8061062a5750610629826110d4565b5b9050919050565b606060008054610640906127e3565b80601f016020809104026020016040519081016040528092919081815260200182805461066c906127e3565b80156106b95780601f1061068e576101008083540402835291602001916106b9565b820191906000526020600020905b81548152906001019060200180831161069c57829003601f168201915b5050505050905090565b60006106ce8261113e565b6004600083815260200190815260200160002060009054906101000a900473ffffffffffffffffffffffffffffffffffffffff169050919050565b600061071482610bdf565b90508073ffffffffffffffffffffffffffffffffffffffff168373ffffffffffffffffffffffffffffffffffffffff1603610784576040517f08c379a000000000000000000000000000000000000000000000000000000000815260040161077b90612886565b60405180910390fd5b8073ffffffffffffffffffffffffffffffffffffffff166107a3611189565b73ffffffffffffffffffffffffffffffffffffffff1614806107d257506107d1816107cc611189565b611040565b5b610811576040517f08c379a000000000000000000000000000000000000000000000000000000000815260040161080890612918565b60405180910390fd5b61081b8383611191565b505050565b600047905090565b60085481565b610836611fc2565b60096000838152602001908152602001600020604051806060016040529081600082018054610864906127e3565b80601f0160208091040260200160405190810160405280929190818152602001828054610890906127e3565b80156108dd5780601f106108b2576101008083540402835291602001916108dd565b820191906000526020600020905b8154815290600101906020018083116108c057829003601f168201915b50505050508152602001600182015481526020016002820160009054906101000a900460ff1615151515815250509050919050565b61092361091d611189565b8261124a565b610962576040517f08c379a0000000000000000000000000000000000000000000000000000000008152600401610959906129aa565b60405180910390fd5b61096d8383836112df565b505050565b600660009054906101000a900473ffffffffffffffffffffffffffffffffffffffff1673ffffffffffffffffffffffffffffffffffffffff163373ffffffffffffffffffffffffffffffffffffffff1614610a02576040517f08c379a00000000000000000000000000000000000000000000000000000000081526004016109f990612a3c565b60405180910390fd5b6000600660009054906101000a900473ffffffffffffffffffffffffffffffffffffffff1673ffffffffffffffffffffffffffffffffffffffff1647604051610a4a90612a8d565b60006040518083038185875af1925050503d8060008114610a87576040519150601f19603f3d011682016040523d82523d6000602084013e610a8c565b606091505b5050905080610a9a57600080fd5b50565b610ab883838360405180602001604052806000815250610f70565b505050565b600660009054906101000a900473ffffffffffffffffffffffffffffffffffffffff1673ffffffffffffffffffffffffffffffffffffffff163373ffffffffffffffffffffffffffffffffffffffff1614610b4d576040517f08c379a0000000000000000000000000000000000000000000000000000000008152600401610b4490612a3c565b60405180910390fd5b60076000815480929190610b6090612ad1565b91905055506040518060600160405280838152602001828152602001600015158152506009600060075481526020019081526020016000206000820151816000019081610bad9190612cc5565b506020820151816001015560408201518160020160006101000a81548160ff0219169083151502179055509050505050565b600080610beb836115d8565b9050600073ffffffffffffffffffffffffffffffffffffffff168173ffffffffffffffffffffffffffffffffffffffff1603610c5c576040517f08c379a0000000000000000000000000000000000000000000000000000000008152600401610c5390612de3565b60405180910390fd5b80915050919050565b6009602052806000526040600020600091509050806000018054610c88906127e3565b80601f0160208091040260200160405190810160405280929190818152602001828054610cb4906127e3565b8015610d015780601f10610cd657610100808354040283529160200191610d01565b820191906000526020600020905b815481529060010190602001808311610ce457829003601f168201915b5050505050908060010154908060020160009054906101000a900460ff16905083565b60008073ffffffffffffffffffffffffffffffffffffffff168273ffffffffffffffffffffffffffffffffffffffff1603610d94576040517f08c379a0000000000000000000000000000000000000000000000000000000008152600401610d8b90612e75565b60405180910390fd5b600360008373ffffffffffffffffffffffffffffffffffffffff1673ffffffffffffffffffffffffffffffffffffffff168152602001908152602001600020549050919050565b600660009054906101000a900473ffffffffffffffffffffffffffffffffffffffff1681565b606060018054610e10906127e3565b80601f0160208091040260200160405190810160405280929190818152602001828054610e3c906127e3565b8015610e895780601f10610e5e57610100808354040283529160200191610e89565b820191906000526020600020905b815481529060010190602001808311610e6c57829003601f168201915b5050505050905090565b60008103610ea057600080fd5b600754811115610eaf57600080fd5b600015156009600083815260200190815260200160002060020160009054906101000a900460ff16151514610ee357600080fd5b6009600082815260200190815260200160002060010154341015610f0657600080fd5b60016009600083815260200190815260200160002060020160006101000a81548160ff02191690831515021790555060086000815480929190610f4890612ad1565b9190505550610f573382611615565b50565b610f6c610f65611189565b8383611633565b5050565b610f81610f7b611189565b8361124a565b610fc0576040517f08c379a0000000000000000000000000000000000000000000000000000000008152600401610fb7906129aa565b60405180910390fd5b610fcc8484848461179f565b50505050565b6060610fdd8261113e565b6000610fe76117fb565b905060008151116110075760405180602001604052806000815250611032565b8061101184611812565b604051602001611022929190612ed1565b6040516020818303038152906040525b915050919050565b60075481565b6000600560008473ffffffffffffffffffffffffffffffffffffffff1673ffffffffffffffffffffffffffffffffffffffff16815260200190815260200160002060008373ffffffffffffffffffffffffffffffffffffffff1673ffffffffffffffffffffffffffffffffffffffff16815260200190815260200160002060009054906101000a900460ff16905092915050565b60007f01ffc9a7000000000000000000000000000000000000000000000000000000007bffffffffffffffffffffffffffffffffffffffffffffffffffffffff1916827bffffffffffffffffffffffffffffffffffffffffffffffffffffffff1916149050919050565b611147816118e0565b611186576040517f08c379a000000000000000000000000000000000000000000000000000000000815260040161117d90612de3565b60405180910390fd5b50565b600033905090565b816004600083815260200190815260200160002060006101000a81548173ffffffffffffffffffffffffffffffffffffffff021916908373ffffffffffffffffffffffffffffffffffffffff160217905550808273ffffffffffffffffffffffffffffffffffffffff1661120483610bdf565b73ffffffffffffffffffffffffffffffffffffffff167f8c5be1e5ebec7d5bd14f71427d1e84f3dd0314c0f7b2291e5b200ac8c7c3b92560405160405180910390a45050565b60008061125683610bdf565b90508073ffffffffffffffffffffffffffffffffffffffff168473ffffffffffffffffffffffffffffffffffffffff16148061129857506112978185611040565b5b806112d657508373ffffffffffffffffffffffffffffffffffffffff166112be846106c3565b73ffffffffffffffffffffffffffffffffffffffff16145b91505092915050565b8273ffffffffffffffffffffffffffffffffffffffff166112ff82610bdf565b73ffffffffffffffffffffffffffffffffffffffff1614611355576040517f08c379a000000000000000000000000000000000000000000000000000000000815260040161134c90612f67565b60405180910390fd5b600073ffffffffffffffffffffffffffffffffffffffff168273ffffffffffffffffffffffffffffffffffffffff16036113c4576040517f08c379a00000000000000000000000000000000000000000000000000000000081526004016113bb90612ff9565b60405180910390fd5b6113d18383836001611921565b8273ffffffffffffffffffffffffffffffffffffffff166113f182610bdf565b73ffffffffffffffffffffffffffffffffffffffff1614611447576040517f08c379a000000000000000000000000000000000000000000000000000000000815260040161143e90612f67565b60405180910390fd5b6004600082815260200190815260200160002060006101000a81549073ffffffffffffffffffffffffffffffffffffffff02191690556001600360008573ffffffffffffffffffffffffffffffffffffffff1673ffffffffffffffffffffffffffffffffffffffff168152602001908152602001600020600082825403925050819055506001600360008473ffffffffffffffffffffffffffffffffffffffff1673ffffffffffffffffffffffffffffffffffffffff16815260200190815260200160002060008282540192505081905550816002600083815260200190815260200160002060006101000a81548173ffffffffffffffffffffffffffffffffffffffff021916908373ffffffffffffffffffffffffffffffffffffffff160217905550808273ffffffffffffffffffffffffffffffffffffffff168473ffffffffffffffffffffffffffffffffffffffff167fddf252ad1be2c89b69c2b068fc378daa952ba7f163c4a11628f55a4df523b3ef60405160405180910390a46115d38383836001611a47565b505050565b60006002600083815260200190815260200160002060009054906101000a900473ffffffffffffffffffffffffffffffffffffffff169050919050565b61162f828260405180602001604052806000815250611a4d565b5050565b8173ffffffffffffffffffffffffffffffffffffffff168373ffffffffffffffffffffffffffffffffffffffff16036116a1576040517f08c379a000000000000000000000000000000000000000000000000000000000815260040161169890613065565b60405180910390fd5b80600560008573ffffffffffffffffffffffffffffffffffffffff1673ffffffffffffffffffffffffffffffffffffffff16815260200190815260200160002060008473ffffffffffffffffffffffffffffffffffffffff1673ffffffffffffffffffffffffffffffffffffffff16815260200190815260200160002060006101000a81548160ff0219169083151502179055508173ffffffffffffffffffffffffffffffffffffffff168373ffffffffffffffffffffffffffffffffffffffff167f17307eab39ab6107e8899845ad3d59bd9653f200f220920489ca2b5937696c31836040516117929190612099565b60405180910390a3505050565b6117aa8484846112df565b6117b684848484611aa8565b6117f5576040517f08c379a00000000000000000000000000000000000000000000000000000000081526004016117ec906130f7565b60405180910390fd5b50505050565b606060405180602001604052806000815250905090565b60606000600161182184611c2f565b01905060008167ffffffffffffffff8111156118405761183f6123f2565b5b6040519080825280601f01601f1916602001820160405280156118725781602001600182028036833780820191505090505b509050600082602001820190505b6001156118d5578080600190039150507f3031323334353637383961626364656600000000000000000000000000000000600a86061a8153600a85816118c9576118c8613117565b5b04945060008503611880575b819350505050919050565b60008073ffffffffffffffffffffffffffffffffffffffff16611902836115d8565b73ffffffffffffffffffffffffffffffffffffffff1614159050919050565b6001811115611a4157600073ffffffffffffffffffffffffffffffffffffffff168473ffffffffffffffffffffffffffffffffffffffff16146119b55780600360008673ffffffffffffffffffffffffffffffffffffffff1673ffffffffffffffffffffffffffffffffffffffff16815260200190815260200160002060008282546119ad9190613146565b925050819055505b600073ffffffffffffffffffffffffffffffffffffffff168373ffffffffffffffffffffffffffffffffffffffff1614611a405780600360008573ffffffffffffffffffffffffffffffffffffffff1673ffffffffffffffffffffffffffffffffffffffff1681526020019081526020016000206000828254611a38919061317a565b925050819055505b5b50505050565b50505050565b611a578383611d82565b611a646000848484611aa8565b611aa3576040517f08c379a0000000000000000000000000000000000000000000000000000000008152600401611a9a906130f7565b60405180910390fd5b505050565b6000611ac98473ffffffffffffffffffffffffffffffffffffffff16611f9f565b15611c22578373ffffffffffffffffffffffffffffffffffffffff1663150b7a02611af2611189565b8786866040518563ffffffff1660e01b8152600401611b149493929190613203565b6020604051808303816000875af1925050508015611b5057506040513d601f19601f82011682018060405250810190611b4d9190613264565b60015b611bd2573d8060008114611b80576040519150601f19603f3d011682016040523d82523d6000602084013e611b85565b606091505b506000815103611bca576040517f08c379a0000000000000000000000000000000000000000000000000000000008152600401611bc1906130f7565b60405180910390fd5b805181602001fd5b63150b7a0260e01b7bffffffffffffffffffffffffffffffffffffffffffffffffffffffff1916817bffffffffffffffffffffffffffffffffffffffffffffffffffffffff191614915050611c27565b600190505b949350505050565b600080600090507a184f03e93ff9f4daa797ed6e38ed64bf6a1f0100000000000000008310611c8d577a184f03e93ff9f4daa797ed6e38ed64bf6a1f0100000000000000008381611c8357611c82613117565b5b0492506040810190505b6d04ee2d6d415b85acef81000000008310611cca576d04ee2d6d415b85acef81000000008381611cc057611cbf613117565b5b0492506020810190505b662386f26fc100008310611cf957662386f26fc100008381611cef57611cee613117565b5b0492506010810190505b6305f5e1008310611d22576305f5e1008381611d1857611d17613117565b5b0492506008810190505b6127108310611d47576127108381611d3d57611d3c613117565b5b0492506004810190505b60648310611d6a5760648381611d6057611d5f613117565b5b0492506002810190505b600a8310611d79576001810190505b80915050919050565b600073ffffffffffffffffffffffffffffffffffffffff168273ffffffffffffffffffffffffffffffffffffffff1603611df1576040517f08c379a0000000000000000000000000000000000000000000000000000000008152600401611de8906132dd565b60405180910390fd5b611dfa816118e0565b15611e3a576040517f08c379a0000000000000000000000000000000000000000000000000000000008152600401611e3190613349565b60405180910390fd5b611e48600083836001611921565b611e51816118e0565b15611e91576040517f08c379a0000000000000000000000000000000000000000000000000000000008152600401611e8890613349565b60405180910390fd5b6001600360008473ffffffffffffffffffffffffffffffffffffffff1673ffffffffffffffffffffffffffffffffffffffff16815260200190815260200160002060008282540192505081905550816002600083815260200190815260200160002060006101000a81548173ffffffffffffffffffffffffffffffffffffffff021916908373ffffffffffffffffffffffffffffffffffffffff160217905550808273ffffffffffffffffffffffffffffffffffffffff16600073ffffffffffffffffffffffffffffffffffffffff167fddf252ad1be2c89b69c2b068fc378daa952ba7f163c4a11628f55a4df523b3ef60405160405180910390a4611f9b600083836001611a47565b5050565b6000808273ffffffffffffffffffffffffffffffffffffffff163b119050919050565b604051806060016040528060608152602001600081526020016000151581525090565b6000604051905090565b600080fd5b600080fd5b60007fffffffff0000000000000000000000000000000000000000000000000000000082169050919050565b61202e81611ff9565b811461203957600080fd5b50565b60008135905061204b81612025565b92915050565b60006020828403121561206757612066611fef565b5b60006120758482850161203c565b91505092915050565b60008115159050919050565b6120938161207e565b82525050565b60006020820190506120ae600083018461208a565b92915050565b600081519050919050565b600082825260208201905092915050565b60005b838110156120ee5780820151818401526020810190506120d3565b60008484015250505050565b6000601f19601f8301169050919050565b6000612116826120b4565b61212081856120bf565b93506121308185602086016120d0565b612139816120fa565b840191505092915050565b6000602082019050818103600083015261215e818461210b565b905092915050565b6000819050919050565b61217981612166565b811461218457600080fd5b50565b60008135905061219681612170565b92915050565b6000602082840312156121b2576121b1611fef565b5b60006121c084828501612187565b91505092915050565b600073ffffffffffffffffffffffffffffffffffffffff82169050919050565b60006121f4826121c9565b9050919050565b612204816121e9565b82525050565b600060208201905061221f60008301846121fb565b92915050565b61222e816121e9565b811461223957600080fd5b50565b60008135905061224b81612225565b92915050565b6000806040838503121561226857612267611fef565b5b60006122768582860161223c565b925050602061228785828601612187565b9150509250929050565b61229a81612166565b82525050565b60006020820190506122b56000830184612291565b92915050565b600082825260208201905092915050565b60006122d7826120b4565b6122e181856122bb565b93506122f18185602086016120d0565b6122fa816120fa565b840191505092915050565b61230e81612166565b82525050565b61231d8161207e565b82525050565b6000606083016000830151848203600086015261234082826122cc565b91505060208301516123556020860182612305565b5060408301516123686040860182612314565b508091505092915050565b6000602082019050818103600083015261238d8184612323565b905092915050565b6000806000606084860312156123ae576123ad611fef565b5b60006123bc8682870161223c565b93505060206123cd8682870161223c565b92505060406123de86828701612187565b9150509250925092565b600080fd5b600080fd5b7f4e487b7100000000000000000000000000000000000000000000000000000000600052604160045260246000fd5b61242a826120fa565b810181811067ffffffffffffffff82111715612449576124486123f2565b5b80604052505050565b600061245c611fe5565b90506124688282612421565b919050565b600067ffffffffffffffff821115612488576124876123f2565b5b612491826120fa565b9050602081019050919050565b82818337600083830152505050565b60006124c06124bb8461246d565b612452565b9050828152602081018484840111156124dc576124db6123ed565b5b6124e784828561249e565b509392505050565b600082601f830112612504576125036123e8565b5b81356125148482602086016124ad565b91505092915050565b6000806040838503121561253457612533611fef565b5b600083013567ffffffffffffffff81111561255257612551611ff4565b5b61255e858286016124ef565b925050602061256f85828601612187565b9150509250929050565b60006060820190508181036000830152612593818661210b565b90506125a26020830185612291565b6125af604083018461208a565b949350505050565b6000602082840312156125cd576125cc611fef565b5b60006125db8482850161223c565b91505092915050565b6125ed8161207e565b81146125f857600080fd5b50565b60008135905061260a816125e4565b92915050565b6000806040838503121561262757612626611fef565b5b60006126358582860161223c565b9250506020612646858286016125fb565b9150509250929050565b600067ffffffffffffffff82111561266b5761266a6123f2565b5b612674826120fa565b9050602081019050919050565b600061269461268f84612650565b612452565b9050828152602081018484840111156126b0576126af6123ed565b5b6126bb84828561249e565b509392505050565b600082601f8301126126d8576126d76123e8565b5b81356126e8848260208601612681565b91505092915050565b6000806000806080858703121561270b5761270a611fef565b5b60006127198782880161223c565b945050602061272a8782880161223c565b935050604061273b87828801612187565b925050606085013567ffffffffffffffff81111561275c5761275b611ff4565b5b612768878288016126c3565b91505092959194509250565b6000806040838503121561278b5761278a611fef565b5b60006127998582860161223c565b92505060206127aa8582860161223c565b9150509250929050565b7f4e487b7100000000000000000000000000000000000000000000000000000000600052602260045260246000fd5b600060028204905060018216806127fb57607f821691505b60208210810361280e5761280d6127b4565b5b50919050565b7f4552433732313a20617070726f76616c20746f2063757272656e74206f776e6560008201527f7200000000000000000000000000000000000000000000000000000000000000602082015250565b60006128706021836120bf565b915061287b82612814565b604082019050919050565b6000602082019050818103600083015261289f81612863565b9050919050565b7f4552433732313a20617070726f76652063616c6c6572206973206e6f7420746f60008201527f6b656e206f776e6572206f7220617070726f76656420666f7220616c6c000000602082015250565b6000612902603d836120bf565b915061290d826128a6565b604082019050919050565b60006020820190508181036000830152612931816128f5565b9050919050565b7f4552433732313a2063616c6c6572206973206e6f7420746f6b656e206f776e6560008201527f72206f7220617070726f76656400000000000000000000000000000000000000602082015250565b6000612994602d836120bf565b915061299f82612938565b604082019050919050565b600060208201905081810360008301526129c381612987565b9050919050565b7f4f6e6c7920746865206f776e65722063616e2063616c6c20746869732066756e60008201527f6374696f6e000000000000000000000000000000000000000000000000000000602082015250565b6000612a266025836120bf565b9150612a31826129ca565b604082019050919050565b60006020820190508181036000830152612a5581612a19565b9050919050565b600081905092915050565b50565b6000612a77600083612a5c565b9150612a8282612a67565b600082019050919050565b6000612a9882612a6a565b9150819050919050565b7f4e487b7100000000000000000000000000000000000000000000000000000000600052601160045260246000fd5b6000612adc82612166565b91507fffffffffffffffffffffffffffffffffffffffffffffffffffffffffffffffff8203612b0e57612b0d612aa2565b5b600182019050919050565b60008190508160005260206000209050919050565b60006020601f8301049050919050565b600082821b905092915050565b600060088302612b7b7fffffffffffffffffffffffffffffffffffffffffffffffffffffffffffffffff82612b3e565b612b858683612b3e565b95508019841693508086168417925050509392505050565b6000819050919050565b6000612bc2612bbd612bb884612166565b612b9d565b612166565b9050919050565b6000819050919050565b612bdc83612ba7565b612bf0612be882612bc9565b848454612b4b565b825550505050565b600090565b612c05612bf8565b612c10818484612bd3565b505050565b5b81811015612c3457612c29600082612bfd565b600181019050612c16565b5050565b601f821115612c7957612c4a81612b19565b612c5384612b2e565b81016020851015612c62578190505b612c76612c6e85612b2e565b830182612c15565b50505b505050565b600082821c905092915050565b6000612c9c60001984600802612c7e565b1980831691505092915050565b6000612cb58383612c8b565b9150826002028217905092915050565b612cce826120b4565b67ffffffffffffffff811115612ce757612ce66123f2565b5b612cf182546127e3565b612cfc828285612c38565b600060209050601f831160018114612d2f5760008415612d1d578287015190505b612d278582612ca9565b865550612d8f565b601f198416612d3d86612b19565b60005b82811015612d6557848901518255600182019150602085019450602081019050612d40565b86831015612d825784890151612d7e601f891682612c8b565b8355505b6001600288020188555050505b505050505050565b7f4552433732313a20696e76616c696420746f6b656e2049440000000000000000600082015250565b6000612dcd6018836120bf565b9150612dd882612d97565b602082019050919050565b60006020820190508181036000830152612dfc81612dc0565b9050919050565b7f4552433732313a2061646472657373207a65726f206973206e6f74206120766160008201527f6c6964206f776e65720000000000000000000000000000000000000000000000602082015250565b6000612e5f6029836120bf565b9150612e6a82612e03565b604082019050919050565b60006020820190508181036000830152612e8e81612e52565b9050919050565b600081905092915050565b6000612eab826120b4565b612eb58185612e95565b9350612ec58185602086016120d0565b80840191505092915050565b6000612edd8285612ea0565b9150612ee98284612ea0565b91508190509392505050565b7f4552433732313a207472616e736665722066726f6d20696e636f72726563742060008201527f6f776e6572000000000000000000000000000000000000000000000000000000602082015250565b6000612f516025836120bf565b9150612f5c82612ef5565b604082019050919050565b60006020820190508181036000830152612f8081612f44565b9050919050565b7f4552433732313a207472616e7366657220746f20746865207a65726f2061646460008201527f7265737300000000000000000000000000000000000000000000000000000000602082015250565b6000612fe36024836120bf565b9150612fee82612f87565b604082019050919050565b6000602082019050818103600083015261301281612fd6565b9050919050565b7f4552433732313a20617070726f766520746f2063616c6c657200000000000000600082015250565b600061304f6019836120bf565b915061305a82613019565b602082019050919050565b6000602082019050818103600083015261307e81613042565b9050919050565b7f4552433732313a207472616e7366657220746f206e6f6e20455243373231526560008201527f63656976657220696d706c656d656e7465720000000000000000000000000000602082015250565b60006130e16032836120bf565b91506130ec82613085565b604082019050919050565b60006020820190508181036000830152613110816130d4565b9050919050565b7f4e487b7100000000000000000000000000000000000000000000000000000000600052601260045260246000fd5b600061315182612166565b915061315c83612166565b925082820390508181111561317457613173612aa2565b5b92915050565b600061318582612166565b915061319083612166565b92508282019050808211156131a8576131a7612aa2565b5b92915050565b600081519050919050565b600082825260208201905092915050565b60006131d5826131ae565b6131df81856131b9565b93506131ef8185602086016120d0565b6131f8816120fa565b840191505092915050565b600060808201905061321860008301876121fb565b61322560208301866121fb565b6132326040830185612291565b818103606083015261324481846131ca565b905095945050505050565b60008151905061325e81612025565b92915050565b60006020828403121561327a57613279611fef565b5b60006132888482850161324f565b91505092915050565b7f4552433732313a206d696e7420746f20746865207a65726f2061646472657373600082015250565b60006132c76020836120bf565b91506132d282613291565b602082019050919050565b600060208201905081810360008301526132f6816132ba565b9050919050565b7f4552433732313a20746f6b656e20616c7265616479206d696e74656400000000600082015250565b6000613333601c836120bf565b915061333e826132fd565b602082019050919050565b6000602082019050818103600083015261336281613326565b905091905056fea26469706673582212203bca90a7f8b48422788a3ad00916611cd073dcbf5a410144870f9608f6c893bd64736f6c63430008110033",
  "linkReferences": {},
  "deployedLinkReferences": {}
}